:020000040800F2
:100000006006002049010008510100085301000862
:1000100000000000000000000000000000000000E0
:100020000000000000000000000000005501000872
:1000300000000000000000005701000859010008FE
:100040005B0100085B0100085B0100085B01000820
:100050005B0100085B0100085B0100085B01000810
:100060005B0100085B0100085B0100085B01000800
:100070005B0100085B0100085B0100085B010008F0
:100080005B0100085B0100085B0100085B010008E0
:100090005B0100085B0100085B0100085B010008D0
:1000A0005B0100085B0100085B0100085B010008C0
:1000B0005B0100085B0100085B0100085B010008B0
:1000C00000F002F800F030F80CA030C8083824180E
:1000D0002D18671EA246AB4654465D46AC4201D180
:1000E00000F022F87E460F3EB6460FCC0126334282
:1000F00000D0FB1A3343A246AB46184788040000E1
:10010000980400000023002400250026103A01D3A3
:1001100078C1FBD8520700D330C100D50B607047BF
:100120001FB51FBD10B510BD00F02DF81146FFF72B
:10013000F7FF00F069F800F045F803B4FFF7F2FFAD
:1001400003BC00F04BF80000074880470748004711
:10015000FEE7FEE7FEE7FEE7FEE7FEE704480549A7
:10016000054A064B70470000EB010008C10000087B
:100170006000002060060020600200206002002075
:10018000704770477047754600F024F8AE4605008A
:1001900069465346C008C000854618B020B5FFF731
:1001A000DDFF60BCB64600260027C0C5C0C5C0C57F
:1001B000C0C5C0C5C0C5C0C5C0C5403D490849008F
:1001C0008D46704710B50446C046C0462046FFF72E
:1001D000B4FF10BD004870470000002001491820FE
:1001E000ABBEFEE7260002007047704781B00021D9
:1001F00000910099814205D20099491C0091009913
:100200008142F9D301B0704788B001208004404991
:100210000A6802430A603F4C2046103801683E4A93
:100220000A4302602046183801683C4A0A430260CB
:10023000FF21090602688A43026039480EC8006837
:10024000079004A80EC002A80021818001910291AC
:10025000801D00900AE00520C00121680143216053
:100260003C48FFF7C3FF2068384320602046083829
:10027000016889B2C90B04ADE98001684904C90F5E
:10028000698101688904C90FA9810068C004C00F91
:10029000E8810827019E2C887F1E0220394600F045
:1002A0005BF860438619AD1C002FF4D10025B0B275
:1002B00008280CD90927394600F061F84743F11B9B
:1002C00002AA5153AD1C122D0646F0D101E002A83E
:1002D00046530426009D0F4C124F12E0800012A1DD
:1002E00008582168014321601848FFF77FFF206804
:1002F000384320601648FFF779FFAD1E761E002EAA
:10030000A9DD2888042EE9D10028F6D0E6E7C0460A
:1003100014100240180400485555000055550400BB
:10032000740500080000FFFF3F0200000602000005
:100330005B0200004F020000660200006D02000038
:100340007D020000070200007F020000400D030054
:1003500050C3000020A1070010B5002902D00129D8
:1003600002D110BD012010BDCA0701D0044600E033
:10037000012440434908FFF7EFFF604310BD4308E5
:100380008B421AD3002203098B4279D3030A8B4292
:100390005ED3030B8B4242D3030C8B4227D309025B
:1003A000FF2212BA030C8B4202D31212090203D0AD
:1003B000030B8B4233D31AE0D3E0411A8041401C37
:1003C000704703460B4371D443088B42F5D3002298
:1003D00003098B4254D3030A8B4239D3030B8B425C
:1003E0001DD3030C8B4202D394466EE0090AC30B63
:1003F0008B4201D3CB03C01A5241830B8B4201D3F2
:100400008B03C01A5241430B8B4201D34B03C01ADA
:100410005241030B8B4201D30B03C01A5241C30A52
:100420008B4201D3CB02C01A5241830A8B4201D3C3
:100430008B02C01A5241430A8B4201D34B02C01AAD
:100440005241030A8B4201D30B02C01A5241CDD252
:10045000C3098B4201D3CB01C01A524183098B429D
:1004600001D38B01C01A524143098B4201D34B0186
:10047000C01A524103098B4201D30B01C01A5241E9
:10048000C3088B4201D3CB00C01A524183088B4270
:1004900001D38B00C01A524143088B4201D34B0059
:1004A000C01A5241411A524110007047CA0F00D081
:1004B0004942031000D34042534000229C460309A6
:1004C0008B422DD3030A8B4212D38901FC2212BA2C
:1004D000030A8B420CD3890192118B4208D3890104
:1004E00092118B4204D3890137D0921100E089091F
:1004F000C3098B4201D3CB01C01A524183098B42FD
:1005000001D38B01C01A524143098B4201D34B01E5
:10051000C01A524103098B4201D30B01C01A524148
:10052000C3088B4201D3CB00C01A524183088B42CF
:1005300001D38B00C01A5241D9D243088B4201D358
:100540004B00C01A5241411A00D201465241104696
:1005500063465B1000D34042704763465B1000D394
:10056000404201B50021004201D0C9430846C046BF
:10057000C04602BD010001000100000000000000B3
:100580000000000094050008000000206006000044
:04059000040100085A
:0400000508000149A5
:00000001FF
