:020000040800F2
:100000006807002049010008510100085301000859
:1000100000000000000000000000000000000000E0
:100020000000000000000000000000005501000872
:1000300000000000000000005701000859010008FE
:100040005B0100085B0100085B0100085B01000820
:100050005B0100085B0100085B0100085B01000810
:100060005B0100085B0100085B0100085B01000800
:100070005B0100085B0100085B0100085B010008F0
:100080005B0100085B0100085B0100085B010008E0
:100090005B0100085B0100085B0100085B010008D0
:1000A0005B0100085B0100085B0100087D0200089D
:1000B0005B0100085B0100085B0100085B010008B0
:1000C00000F002F800F030F80CA030C8083824180E
:1000D0002D18671EA246AB4654465D46AC4201D180
:1000E00000F022F87E460F3EB6460FCC0126334282
:1000F00000D0FB1A3343A246AB461847100300005A
:10010000200300000023002400250026103A01D31C
:1001100078C1FBD8520700D330C100D50B607047BF
:100120001FB51FBD10B510BD00F02DF81146FFF72B
:10013000F7FF00F02FF900F045F803B4FFF7F2FFE6
:1001400003BC00F04BF80000074880470748004711
:10015000FEE7FEE7FEE7FEE7FEE7FEE704480549A7
:10016000054A064B7047000079020008C1000008EC
:100170006801002068070020680300206803002051
:10018000704770477047754600F024F8AE4605008A
:1001900069465346C008C000854618B020B5FFF731
:1001A000DDFF60BCB64600260027C0C5C0C5C0C57F
:1001B000C0C5C0C5C0C5C0C5C0C5403D490849008F
:1001C0008D46704710B50446C046C0462046FFF72E
:1001D000B4FF10BD004870470000002001491820FE
:1001E000ABBEFEE72600020070470000B0B501205C
:1001F0008103804A53680B435360410413680B43E7
:1002000013600521CA041A490B460C3B1C681443B1
:100210001C60112212018B6913438B6142020B4651
:10022000083B1C6894431C60032293040C689C43A5
:100230000C600C1F25681D43256012050B68934355
:100240000B6002050B6813430B600A490A6882437E
:100250000A604522CA600C220A600A6860231343C0
:100260000B6000224A608A600A6802430A60B0BDDF
:100270000C0000480038014070470000F0B52F48DE
:100280000168890647D50189CBB20D2B38D12C499D
:100290000C6800252BA6314A775D6119C9B2575405
:1002A0006D1C152DF8D16419E5B231265655651C23
:1002B000EDB232265655A51CEDB233265655E51C37
:1002C000EDB234265655251DEDB235265655651D21
:1002D000EDB236265655A51DEDB220265655E41D25
:1002E000174F3C600D2B0BD13B6800241CA5295DEA
:1002F0001E19F6B29155641C162CF8D119193960E3
:1003000001680906FCD53D490A68531C0B60D1B24F
:10031000124A515C8181016849060DD54021416036
:10032000364A1168064B1B68994205D24B1C136074
:10033000C9B20A4A515C8181F0BDC0461C380140F7
:1003400064010020CFE5F0E8EEE420ECE8E3E0ED26
:10035000E8FF2C20ECEAF13A2000000060000020C9
:100360000D0ACDEEE2EEE520E7EDE00FE5EDE8E584
:1003700020ECEAF13A20000081B0002100910099C0
:10038000814205D20099491C009100998142F9D31C
:1003900001B07047EFF3108072B60125A80415492B
:1003A0000A6802430A602E04134F3868304328431A
:1003B00038600F2000063968814339602802796966
:1003C000014379610D48002101600D480160FFF78C
:1003D0000DFFE8060B490A6802430A6062B60A4C40
:1003E000BD612046FFF7C8FFBE612046FFF7C4FF8E
:1003F000F6E7C046141002400004004860010020E7
:100400006401002000E100E040E201001C0400085B
:0C04100000000020680700000401000844
:0400000508000149A5
:00000001FF
