:020000040800F2
:100000006006002049010008510100085301000862
:1000100000000000000000000000000000000000E0
:100020000000000000000000000000005501000872
:1000300000000000000000005701000859010008FE
:100040005B0100085B0100085B0100085B01000820
:100050005B0100085B0100085B0100085B01000810
:100060005B0100085B0100085B0100085B01000800
:100070005B0100085B0100085B0100085B010008F0
:100080005B0100085B0100085B0100085B010008E0
:100090005B0100085B0100085B0100085B010008D0
:1000A0005B0100085B0100085B0100085B010008C0
:1000B0005B0100085B0100085B0100085B010008B0
:1000C00000F002F800F030F80CA030C8083824180E
:1000D0002D18671EA246AB4654465D46AC4201D180
:1000E00000F022F87E460F3EB6460FCC0126334282
:1000F00000D0FB1A3343A246AB4618470804000061
:10010000180400000023002400250026103A01D323
:1001100078C1FBD8520700D330C100D50B607047BF
:100120001FB51FBD10B510BD00F02DF81146FFF72B
:10013000F7FF00F0B1F800F045F803B4FFF7F2FF65
:1001400003BC00F04BF80000074880470748004711
:10015000FEE7FEE7FEE7FEE7FEE7FEE704480549A7
:10016000054A064B7047000095020008C1000008D0
:100170006000002060060020600200206002002075
:10018000704770477047754600F024F8AE4605008A
:1001900069465346C008C000854618B020B5FFF731
:1001A000DDFF60BCB64600260027C0C5C0C5C0C57F
:1001B000C0C5C0C5C0C5C0C5C0C5403D490849008F
:1001C0008D46704710B50446C046C0462046FFF72E
:1001D000B4FF10BD004870470000002001491820FE
:1001E000ABBEFEE72600020070470000B0B5204815
:1001F00001680122930319430160B6480168530462
:10020000194301600920C00601680523DB04194376
:1002100001601848016811231B0119430160164849
:1002200001685302994301601448016803239C0448
:10023000A143016012490D6825430D6001681B054B
:100240009943016001681305194301600D48016875
:10025000914301600C4945230B600C2101600B495F
:1002600000230B600A490B60016811430160B0BDB7
:100270001810024024000048040000480C00004808
:1002800008000048003801400C38014004380140A3
:100290000838014070470000F0B595B00020149078
:1002A0008C490A6801239C0422430A608A490A682F
:1002B0008A4C22430A6001900093FFF797FF884819
:1002C0000168009A1302194301608648139086481A
:1002D000129001981190109084490F9184490E91C9
:1002E000FFE7FFE7834800688006002801D4FFE7A6
:1002F000F8E7814800880CA908700DA8002101804A
:10030000FFE70DA80088072800DDDEE006A86421CD
:100310000170692242706F238370C1706521017181
:100320002D2141710DA90B8812ACE35C8371202350
:10033000C371732505727426467261278772C6726F
:100340007526067345738373C273057443740A88F4
:1003500010AB9A5C303282740A22C2740D2202758C
:10036000002242750CA800780988615C884265D13A
:10037000FFE70DA8008810A9085C00282BD1FFE733
:100380000DA8018810AA012353540188515C303113
:1003900006AA917400880EA9085C51490A680243B4
:1003A0000A6000200590FFE70598152812DCFFE79A
:1003B000FFE7504800680006002801D4FFE7F8E78F
:1003C000059806A9085C4E490880FFE70598401C7F
:1003D0000590E9E731E00DA8008810A9085C012824
:1003E0002AD1FFE70DA8018810AA002353540188E1
:1003F000515C303106AA917400880EA9085C3F490F
:100400000A6802430A600493FFE70498152812DC87
:10041000FFE7FFE7374800680006002801D4FFE740
:10042000F8E7049806A9085C35490880FFE70498B6
:10043000401C0490E9E7FFE7FFE7FFE70CA800781E
:10044000302805D0FFE70CA80078392837D1FFE71E
:100450000CA80078302818D1FFE700200390FFE7B0
:100460000398072810DCFFE703980EA9085C2349CE
:100470000A6802430A60039810A900220A54FFE7A1
:100480000398401C0390EBE7FFE700200290FFE792
:100490000298152812DCFFE7FFE7164800680006FF
:1004A000002801D4FFE7F8E7029806A9085C144980
:1004B0000880FFE70298401C0290E9E7FFE7FFE7AA
:1004C0000D98401C0DA908801BE70DA80021018094
:1004D00007E7C046141002400004004855550100CB
:1004E0001404004835363738313233344020100890
:1004F000010204801C3801402438014028040048CF
:1005000028380140140500080000002060060000A3
:0405100004010008DA
:04000005080000C12E
:00000001FF
