:020000040800F2
:100000006006002049010008510100085301000862
:1000100000000000000000000000000000000000E0
:100020000000000000000000000000005501000872
:1000300000000000000000005701000859010008FE
:100040005B0100085B0100085B0100085B01000820
:100050005B0100085B0100085B0100085B01000810
:100060005B0100085B0100085B0100085B01000800
:100070005B0100085B0100085B0100085B010008F0
:100080005B0100085B0100085B0100085B010008E0
:100090005B0100085B0100085B0100085B010008D0
:1000A0005B0100085B0100085B0100085B010008C0
:1000B0005B0100085B0100085B0100085B010008B0
:1000C00000F002F800F030F80CA030C8083824180E
:1000D0002D18671EA246AB4654465D46AC4201D180
:1000E00000F022F87E460F3EB6460FCC0126334282
:1000F00000D0FB1A3343A246AB46184780030000EA
:10010000900300000023002400250026103A01D3AC
:1001100078C1FBD8520700D330C100D50B607047BF
:100120001FB51FBD10B510BD00F02DF81146FFF72B
:10013000F7FF00F0B1F800F045F803B4FFF7F2FF65
:1001400003BC00F04BF80000074880470748004711
:10015000FEE7FEE7FEE7FEE7FEE7FEE704480549A7
:10016000054A064B7047000095020008C1000008D0
:100170006000002060060020600200206002002075
:10018000704770477047754600F024F8AE4605008A
:1001900069465346C008C000854618B020B5FFF731
:1001A000DDFF60BCB64600260027C0C5C0C5C0C57F
:1001B000C0C5C0C5C0C5C0C5C0C5403D490849008F
:1001C0008D46704710B50446C046C0462046FFF72E
:1001D000B4FF10BD004870470000002001491820FE
:1001E000ABBEFEE72600020070470000B0B5204815
:1001F0000168012293031943016098480168530480
:10020000194301600920C00601680523DB04194376
:1002100001601848016811231B0119430160164849
:1002200001685302994301601448016803239C0448
:10023000A143016012490D6825430D6001681B054B
:100240009943016001681305194301600D48016875
:10025000914301600C4945230B600C2101600B495F
:1002600000230B600A490B60016811430160B0BDB7
:100270001810024024000048040000480C00004808
:1002800008000048003801400C38014004380140A3
:10029000083801407047000080B584B0002003900A
:1002A0006E48016801229304194301606C4801689B
:1002B0006C4B194301600092FFF798FF6A48016890
:1002C000009A13021943016002A80270FFE7FFE7DA
:1002D000664800688006002801D4FFE7F8E7644814
:1002E000008801A908700878312800D0B4E002A87D
:1002F0000078C007002857D0FFE75B48016801225B
:10030000114301600298824302A802705A48622198
:100310000180FFE7554800680006002801D4FFE788
:10032000F8E7554869210180FFE75048006800065A
:10033000002801D4FFE7F8E74F4874210180FFE768
:100340004A4800680006002801D4FFE7F8E74A4859
:1003500031210180FFE7454800680006002801D4EC
:10036000FFE7F8E744482B210180FFE73F4800689A
:100370000006002801D4FFE7F8E73F480A21018082
:10038000FFE73A4800680006002801D4FFE7F8E7D5
:1003900039480D210180FFE7344800680006002835
:1003A00001D4FFE7F8E756E0324801680122114323
:1003B00001600298824302A802702F4862210180E6
:1003C000FFE72A4800680006002801D4FFE7F8E7A5
:1003D000294869210180FFE72448006800060028B9
:1003E00001D4FFE7F8E7244874210180FFE71F48A4
:1003F00000680006002801D4FFE7F8E71E48312115
:100400000180FFE7194800680006002801D4FFE7D3
:10041000F8E719482D210180FFE71448006800061D
:10042000002801D4FFE7F8E713480A210180FFE71D
:100430000E4800680006002801D4FFE7F8E70E48E0
:100440000D210180FFE7094800680006002801D45B
:10045000FFE7F8E7FFE7FFE739E7C046141002407F
:100460000004004801000100140400481C38014049
:100470002438014028040048283801408C04000832
:0C048000000000206006000004010008DD
:04000005080000C12E
:00000001FF
