:020000040800F2
:100000006006002049010008510100085301000862
:1000100000000000000000000000000000000000E0
:100020000000000000000000000000005501000872
:1000300000000000000000005701000859010008FE
:100040005B0100085B0100085B0100085B01000820
:100050005B0100085B0100085B0100085B01000810
:100060005B0100085B0100085B0100085B01000800
:100070005B0100085B0100085B0100085B010008F0
:100080005B0100085B0100085B0100085B010008E0
:100090005B0100085B0100085B0100085B010008D0
:1000A0005B0100085B0100085B0100085B010008C0
:1000B0005B0100085B0100085B0100085B010008B0
:1000C00000F002F800F030F80CA030C8083824180E
:1000D0002D18671EA246AB4654465D46AC4201D180
:1000E00000F022F87E460F3EB6460FCC0126334282
:1000F00000D0FB1A3343A246AB461847D802000093
:10010000E80200000023002400250026103A01D355
:1001100078C1FBD8520700D330C100D50B607047BF
:100120001FB51FBD10B510BD00F02DF81146FFF72B
:10013000F7FF00F09FF800F045F803B4FFF7F2FF77
:1001400003BC00F04BF80000074880470748004711
:10015000FEE7FEE7FEE7FEE7FEE7FEE704480549A7
:10016000054A064B7047000071020008C1000008F4
:100170006000002060060020600200206002002075
:10018000704770477047754600F024F8AE4605008A
:1001900069465346C008C000854618B020B5FFF731
:1001A000DDFF60BCB64600260027C0C5C0C5C0C57F
:1001B000C0C5C0C5C0C5C0C5C0C5403D490849008F
:1001C0008D46704710B50446C046C0462046FFF72E
:1001D000B4FF10BD004870470000002001491820FE
:1001E000ABBEFEE72600020070470000B0B501205C
:1001F00081036F4A53680B435360410413680B43F8
:1002000013600521CA0418490B460C3B1C681443B3
:100210001C60112212018B6913438B6142020B4651
:10022000083B1C6894431C60032293040C689C43A5
:100230000C600C1F25681D43256012050B68934355
:100240000B6002050B6813430B6008490A68824380
:100250000A604522CA600C220A6000224A608A6055
:100260000A6802430A60B0BD0C0000480038014033
:10027000704700008CB00124A0044D490A68024375
:100280000A604C4D2846143801684B4A0A43026004
:10029000FFF7ACFF00942002296801432960002089
:1002A0000B9002900A9045490A689206FCD508898D
:1002B0000190029F02E07F1C082FF5D004AC2020A3
:1002C00060747326267469220392E273A0736673C6
:1002D000752323737423E3723A462F466125A57272
:1002E0003D46174663722672374EE0712D206071CD
:1002F000652020716420E0706F23A370039A627000
:1003000020702FA0C05DA071029A62750D22227527
:100310000A22E2740AAAD25D13463033A374019B09
:10032000DCB2A0422BD1012A16D0002A27D10AA87C
:10033000009AC25504A831228274F05D2A680243F3
:100340002A60002208680006FCD504A8805C888129
:10035000521C162AF6D112E00AA80022C25504A89F
:1003600030238374F05D6B6903436B61086800069A
:10037000FCD504A8805C8881521C162AF6D1392C41
:100380000BD0302C97D100220B920A92B05C6B6993
:1003900003436B61521C082AF8D10022086800064A
:1003A000FCD504A8805C8881521C162AF6D182E70D
:1003B0001410024014040048555501001C38014037
:1003C0003132333435363738CC030008010204802B
:1003D00040201008E4030008000000206006000030
:0403E000040100080C
:0400000508000149A5
:00000001FF
