:020000040800F2
:100000006006002049010008510100085301000862
:1000100000000000000000000000000000000000E0
:100020000000000000000000000000005501000872
:1000300000000000000000005701000859010008FE
:100040005B0100085B0100085B0100085B01000820
:100050005B0100085B0100085B0100085B01000810
:100060005B0100085B0100085B0100085B01000800
:100070005B0100085B0100085B0100085B010008F0
:100080005B0100085B0100085B0100085B010008E0
:100090005B0100085B0100085B0100085B010008D0
:1000A0005B0100085B0100085B0100085B010008C0
:1000B0005B0100085B0100085B0100085B010008B0
:1000C00000F002F800F030F80CA030C8083824180E
:1000D0002D18671EA246AB4654465D46AC4201D180
:1000E00000F022F87E460F3EB6460FCC0126334282
:1000F00000D0FB1A3343A246AB461847DC0400008D
:10010000EC0400000023002400250026103A01D34F
:1001100078C1FBD8520700D330C100D50B607047BF
:100120001FB51FBD10B510BD00F0E3F81146FFF775
:10013000F7FF00F06BF900F0FBF803B4FFF7F2FFF4
:1001400003BC00F001F9000007488047074800475A
:10015000FEE7FEE7FEE7FEE7FEE7FEE704480549A7
:10016000054A064B7047000009040008C10000085A
:100170006000002060060020600200206002002075
:10018000002203098B422CD3030A8B4211D3002394
:100190009C464EE003460B433CD4002243088B426E
:1001A00031D303098B421CD3030A8B4201D39446FB
:1001B0003FE0C3098B4201D3CB01C01A52418309EE
:1001C0008B4201D38B01C01A524143098B4201D3A8
:1001D0004B01C01A524103098B4201D30B01C01AD3
:1001E0005241C3088B4201D3CB00C01A524183084D
:1001F0008B4201D38B00C01A524143088B4201D37A
:100200004B00C01A5241411A00D2014652411046D9
:1002100070475DE0CA0F00D04942031000D340424E
:1002200053409C46002203098B422DD3030A8B4284
:1002300012D38901FC2212BA030A8B420CD3890122
:1002400092118B4208D3890192118B4204D3890108
:100250003AD0921100E08909C3098B4201D3CB0146
:10026000C01A524183098B4201D38B01C01A5241FB
:1002700043098B4201D34B01C01A524103098B42FF
:1002800001D30B01C01A5241C3088B4201D3CB00EA
:10029000C01A524183088B4201D38B00C01A5241CD
:1002A000D9D243088B4201D34B00C01A5241411AA4
:1002B00000D201465241104663465B1001D34042D2
:1002C000002B00D54942704763465B1000D3404283
:1002D00001B50549002802DC491C084000E0084639
:1002E000C046C04602BD00BFFFFFFF7F704770479A
:1002F0007047754600F024F8AE460500694653463F
:10030000C008C000854618B020B5FFF727FF60BCC5
:10031000B64600260027C0C5C0C5C0C5C0C5C0C5FB
:10032000C0C5C0C5C0C5403D490849008D4670479D
:1003300010B50446C046C0462046FFF7FEFE10BD7D
:10034000004870470000002001491820ABBEFEE7BE
:100350002600020070470000B0B521480168012264
:100360009303194301601F48016853041943016056
:100370000920C00601680523DB04194301601A48FF
:10038000016811231B0119430160184801685302D9
:10039000994301601648016803239C04A14301604E
:1003A00014490D6825430D6001681C05A1430160D7
:1003B00001681405214301600F4801689143016001
:1003C0000D2149010D4C21600C21016019030C4BDA
:1003D00019600C4900230B60016811430160B0BD36
:1003E0001810024014100240240000480400004885
:1003F0000C00004808000048003801400C3801405B
:1004000004380140083801407047000080B592B0C0
:10041000002011900490FFF79FFF10A80421018095
:1004200004980F900DA9674A8A8067490D910CA91D
:100430000870FFE7FFE7654800688006002801D4E0
:10044000FFE7F8E7624800880BA9087000200A90CF
:10045000FFE70A980B2810D8FFE7FFE75B48006822
:100460000006002801D4FFE7F8E75A487F21018001
:10047000FFE70A98401C0A90EBE700200990FFE78D
:100480000998082812D8FFE7FFE7504800680006DF
:10049000002801D4FFE7F8E709980DA9085C4D4949
:1004A0000880FFE70998401C0990E9E708A80021A7
:1004B0000180FFE708A8008810A9098888422DDA82
:1004C000FFE70BA8007810A90988884207DAFFE740
:1004D0000B98303008A909880FAA50541EE00BA8C9
:1004E000017810AA13880390084619460292FFF774
:1004F00047FE303108AA12880FAB995403990A7845
:10050000029B198801901046FFF73AFE0399087084
:10051000FFE70898401C08A90880CBE70320079054
:10052000FFE70798002812D4FFE7FFE72748006895
:100530000006002801D4FFE7F8E707980FA9085C38
:1005400024490880FFE70798401E0790E9E700204C
:100550000690FFE70698002812DCFFE7FFE71B483C
:1005600000680006002801D4FFE7F8E706980CA908
:10057000085C18490880FFE70698401C0690E9E7E8
:10058000FFE7124800680006002801D4FFE7F8E7FB
:100590000BA800780F49088005A800210180FFE71B
:1005A00005A8008803280BDCFFE705A800880FA931
:1005B00000220A54FFE70598401C05A90880EFE7D0
:1005C00038E7C046343E000064766D2D1C3801408B
:1005D0002438014028380140E805000800000020C8
:0805E0006006000004010008A0
:04000005080000C12E
:00000001FF
