:020000040800F2
:100000006006002049010008510100085301000862
:1000100000000000000000000000000000000000E0
:100020000000000000000000000000005501000872
:1000300000000000000000005701000859010008FE
:100040005B0100085B0100085B0100085B01000820
:100050005B0100085B0100085B0100085B01000810
:100060005B0100085B0100085B0100085B01000800
:100070005B0100085B0100085B0100085B010008F0
:100080005B0100085B0100085B0100085B010008E0
:100090005B0100085B0100085B0100085B010008D0
:1000A0005B0100085B0100085B0100085B010008C0
:1000B0005B0100085B0100085B0100085B010008B0
:1000C00000F002F800F030F80CA030C8083824180E
:1000D0002D18671EA246AB4654465D46AC4201D180
:1000E00000F022F87E460F3EB6460FCC0126334282
:1000F00000D0FB1A3343A246AB461847BC020000AF
:10010000CC0200000023002400250026103A01D371
:1001100078C1FBD8520700D330C100D50B607047BF
:100120001FB51FBD10B510BD00F02DF81146FFF72B
:10013000F7FF00F0B5F800F045F803B4FFF7F2FF61
:1001400003BC00F04BF80000074880470748004711
:10015000FEE7FEE7FEE7FEE7FEE7FEE704480549A7
:10016000054A064B704700009D020008C1000008C8
:100170006000002060060020600200206002002075
:10018000704770477047754600F024F8AE4605008A
:1001900069465346C008C000854618B020B5FFF731
:1001A000DDFF60BCB64600260027C0C5C0C5C0C57F
:1001B000C0C5C0C5C0C5C0C5C0C5403D490849008F
:1001C0008D46704710B50446C046C0462046FFF72E
:1001D000B4FF10BD004870470000002001491820FE
:1001E000ABBEFEE72600020070470000B0B5214913
:1001F000086801229303184308601F4908685304E4
:10020000184308600920C10608680523DB04184369
:1002100008601A49086811231B011843086018492F
:100220000868530298430860164B19680320850438
:10023000A9431960144C21682943216019680405F9
:10024000A143196019681405214319600F490B680F
:1002500093430B600E4C232323600C230B6000039D
:100260000C4B18600C4B00201860086810430860A5
:10027000B0BDC046181002401410024024000048CF
:10028000040000480C000048080000480038014005
:100290000C38014004380140083801407047000024
:1002A00080B588B000200790FFF7A0FF04A93C4864
:1002B00008813C4805903C480490FFE704A92020B1
:1002C0008871C87108724872FFE738480068800674
:1002D000002801D4FFE7F8E73548008803A9087033
:1002E00002A900200870FFE702A80078092811DCA5
:1002F000FFE7FFE72D4800680006002801D4FFE76C
:10030000F8E72C497F200880FFE70298401C02A9EB
:100310000870E9E701A909200880FFE701A8008823
:1003200006281EDBFFE703A80078032807DCFFE7A9
:100330000398303001A90A8804A9885411E003A960
:10034000087803221040303001AA138804AAD05440
:10035000087880080870FFE70198401E01A908800E
:10036000DCE7694600200870FFE768460078092846
:1003700014DCFFE7FFE70D4800680006002801D401
:10038000FFE7F8E76846017804A8405C094908805F
:10039000FFE70098401C69460870E6E78EE7C04614
:1003A00020200000343E20208376612D1C3801403F
:1003B0002438014028380140C8030008000000200C
:0803C0006006000004010008C2
:04000005080000C12E
:00000001FF
