:020000040800F2
:100000006006002049010008510100085301000862
:1000100000000000000000000000000000000000E0
:100020000000000000000000000000005501000872
:1000300000000000000000005701000859010008FE
:100040005B0100085B0100085B0100085B01000820
:100050005B0100085B0100085B0100085B01000810
:100060005B0100085B0100085B0100085B01000800
:100070005B0100085B0100085B0100085B010008F0
:100080005B0100085B0100085B0100085B010008E0
:100090005B0100085B0100085B0100085B010008D0
:1000A0005B0100085B0100085B0100085B010008C0
:1000B0005B0100085B0100085B0100085B010008B0
:1000C00000F002F800F030F80CA030C8083824180E
:1000D0002D18671EA246AB4654465D46AC4201D180
:1000E00000F022F87E460F3EB6460FCC0126334282
:1000F00000D0FB1A3343A246AB461847A0020000CB
:10010000B00200000023002400250026103A01D38D
:1001100078C1FBD8520700D330C100D50B607047BF
:100120001FB51FBD10B510BD00F02DF81146FFF72B
:10013000F7FF00F069F800F045F803B4FFF7F2FFAD
:1001400003BC00F04BF80000074880470748004711
:10015000FEE7FEE7FEE7FEE7FEE7FEE704480549A7
:10016000054A064B70470000EB010008C10000087B
:100170006000002060060020600200206002002075
:10018000704770477047754600F024F8AE4605008A
:1001900069465346C008C000854618B020B5FFF731
:1001A000DDFF60BCB64600260027C0C5C0C5C0C57F
:1001B000C0C5C0C5C0C5C0C5C0C5403D490849008F
:1001C0008D46704710B50446C046C0462046FFF72E
:1001D000B4FF10BD004870470000002001491820FE
:1001E000ABBEFEE7260002007047704781B00021D9
:1001F00000910099814205D20099491C0091009913
:100200008142F9D301B0704788B0012080043E4993
:100210000A6802430A603D4C2046103801683C4A97
:100220000A4302602046183801683A4A0A430260CD
:10023000FF21090602688A43026037480EC8006839
:10024000079004A80EC002A80021818001910291AC
:10025000801D00900AE00520C00121680143216053
:100260003F48FFF7C3FF2068384320602046083826
:10027000016889B2C90B04AD298001684904C90F1E
:10028000698001688904C90FA9800068C004C00F93
:1002900068810827019E2C887F1E0220394600F0C5
:1002A00061F860438619AD1C002FF4D100201B4F6C
:1002B000B1B2072908D90722164002AA1652801C9B
:1002C000CE081028F4D101E002A90E520426009DA8
:1002D0000E4C12E0800012A10858216801432160F1
:1002E0001D48FFF783FF2068384320601B48FFF755
:1002F0007DFFAD1E761E002EADDD2888042EE9D1CF
:100300000028F6D0E6E7C046141002401804004862
:1003100055550000555504008C0300080000FFFFF0
:100320003F020000060200005B0200004F020000D6
:10033000660200006D0200007D020000070200005E
:100340007F0200006F020000770200007C020000C4
:10035000390200005E020000400D030050C300009F
:1003600020A1070010B5002902D0012902D110BD3B
:10037000012010BDCA0701D0044600E0012440431B
:100380004908FFF7EFFF604310BD000000000000C8
:10039000000000000100000001000000AC030008A4
:0C03A000000000206006000004010008BE
:0400000508000149A5
:00000001FF
