:020000040800F2
:100000006006002049010008510100085301000862
:1000100000000000000000000000000000000000E0
:100020000000000000000000000000005501000872
:1000300000000000000000005701000859010008FE
:100040005B0100085B0100085B0100085B01000820
:100050005B0100085B0100085B0100085B01000810
:100060005B0100085B0100085B0100085B01000800
:100070005B0100085B0100085B0100085B010008F0
:100080005B0100085B0100085B0100085B010008E0
:100090005B0100085B0100085B0100085B010008D0
:1000A0005B0100085B0100085B0100085B010008C0
:1000B0005B0100085B0100085B0100085B010008B0
:1000C00000F002F800F030F80CA030C8083824180E
:1000D0002D18671EA246AB4654465D46AC4201D180
:1000E00000F022F87E460F3EB6460FCC0126334282
:1000F00000D0FB1A3343A246AB4618470C0200005F
:100100001C0200000023002400250026103A01D321
:1001100078C1FBD8520700D330C100D50B607047BF
:100120001FB51FBD10B510BD00F02DF81146FFF72B
:10013000F7FF00F05BF800F045F803B4FFF7F2FFBB
:1001400003BC00F04BF80000074880470748004711
:10015000FEE7FEE7FEE7FEE7FEE7FEE704480549A7
:10016000054A064B70470000EB010008C10000087B
:100170006000002060060020600200206002002075
:10018000704770477047754600F024F8AE4605008A
:1001900069465346C008C000854618B020B5FFF731
:1001A000DDFF60BCB64600260027C0C5C0C5C0C57F
:1001B000C0C5C0C5C0C5C0C5C0C5403D490849008F
:1001C0008D46704710B50446C046C0462046FFF72E
:1001D000B4FF10BD004870470000002001491820FE
:1001E000ABBEFEE72600020070477047012188047D
:1001F0002F4A1368034313602E480246183A1368C7
:100200002D4C1C4314600346103B1C682B4D2543AA
:100210001D60FF231B0614689C4314600902021F23
:1002200013680B431360264A264B0446083C256896
:100230002568256824682404A40FC0467C442479DA
:100240006400A744012A0F1F0160002415590560AE
:10025000241D202CFAD100241D590560241D202CBA
:10026000FAD1E2E701601C2415590560251F002C16
:100270002C46F9D11C241D590560251F002C2C4645
:10028000F9D1D2E701601C24155905601D5905609C
:10029000251F002C2C46F7D1C7E701600024155913
:1002A00005601D590560241D202CF8D1BDE7C0460E
:1002B000141002401804004855550100555500001F
:1002C000C8020008E8020008010000000200000067
:1002D000040000008000000040000000200000003A
:1002E00010000000080000000000010000000200F3
:1002F000000004000000800000004000000020001A
:100300000000100000000800180300080000002092
:08031000600600000401000872
:0400000508000149A5
:00000001FF
