:020000040800F2
:100000006006002049010008510100085301000862
:1000100000000000000000000000000000000000E0
:100020000000000000000000000000005501000872
:1000300000000000000000005701000859010008FE
:100040005B0100085B0100085B0100085B01000820
:100050005B0100085B0100085B0100085B01000810
:100060005B0100085B0100085B0100085B01000800
:100070005B0100085B0100085B0100085B010008F0
:100080005B0100085B0100085B0100085B010008E0
:100090005B0100085B0100085B0100085B010008D0
:1000A0005B0100085B0100085B0100085B010008C0
:1000B0005B0100085B0100085B0100085B010008B0
:1000C00000F002F800F030F80CA030C8083824180E
:1000D0002D18671EA246AB4654465D46AC4201D180
:1000E00000F022F87E460F3EB6460FCC0126334282
:1000F00000D0FB1A3343A246AB4618473C0500002C
:100100004C0500000023002400250026103A01D3EE
:1001100078C1FBD8520700D330C100D50B607047BF
:100120001FB51FBD10B510BD00F0E3F81146FFF775
:10013000F7FF00F023F900F0FBF803B4FFF7F2FF3C
:1001400003BC00F001F9000007488047074800475A
:10015000FEE7FEE7FEE7FEE7FEE7FEE704480549A7
:10016000054A064B7047000057030008C10000080D
:100170006000002060060020600200206002002075
:10018000002203098B422CD3030A8B4211D3002394
:100190009C464EE003460B433CD4002243088B426E
:1001A00031D303098B421CD3030A8B4201D39446FB
:1001B0003FE0C3098B4201D3CB01C01A52418309EE
:1001C0008B4201D38B01C01A524143098B4201D3A8
:1001D0004B01C01A524103098B4201D30B01C01AD3
:1001E0005241C3088B4201D3CB00C01A524183084D
:1001F0008B4201D38B00C01A524143088B4201D37A
:100200004B00C01A5241411A00D2014652411046D9
:1002100070475DE0CA0F00D04942031000D340424E
:1002200053409C46002203098B422DD3030A8B4284
:1002300012D38901FC2212BA030A8B420CD3890122
:1002400092118B4208D3890192118B4204D3890108
:100250003AD0921100E08909C3098B4201D3CB0146
:10026000C01A524183098B4201D38B01C01A5241FB
:1002700043098B4201D34B01C01A524103098B42FF
:1002800001D30B01C01A5241C3088B4201D3CB00EA
:10029000C01A524183088B4201D38B00C01A5241CD
:1002A000D9D243088B4201D34B00C01A5241411AA4
:1002B00000D201465241104663465B1001D34042D2
:1002C000002B00D54942704763465B1000D3404283
:1002D00001B50549002802DC491C084000E0084639
:1002E000C046C04602BD00BFFFFFFF7F704770479A
:1002F0007047754600F024F8AE460500694653463F
:10030000C008C000854618B020B5FFF727FF60BCC5
:10031000B64600260027C0C5C0C5C0C5C0C5C0C5FB
:10032000C0C5C0C5C0C5403D490849008D4670479D
:1003300010B50446C046C0462046FFF7FEFE10BD7D
:10034000004870470000002001491820ABBEFEE7BE
:10035000260002007047704782B001900020009094
:10036000FFE700980199884205D2FFE7FFE7009870
:10037000401C0090F5E702B070470000B0B5A2B095
:100380000020219078490A6801239B041A430A60DF
:1003900076490A68764B1A430A600A68FF231B06EF
:1003A0009A430A6020A90E220A8072498A89CB8961
:1003B0001B049A181F920A894B891B049A181E92D3
:1003C0008A88CB881B049A181D920A8849880904D8
:1003D00089181C911BA9088019A988801990664862
:1003E0000BA91CC81CC13CC83CC11CC81CC13CC8D2
:1003F0003CC1FFE71BA8002101806048026892B25F
:10040000D20B1CAB1A8002680124A5032A40920B70
:100410009A80026865032A40520B5A8100682203C1
:100420001040000B988107200A9009A80180FFE77F
:1004300009A8008807281ADCFFE709A800884000FF
:100440001CA9085A0A9902220690104600F0A2F848
:10045000069948431B9908181BA908800A98401E52
:100460000A90FFE70998401C09A90880E0E708A85E
:1004700000210180FFE708A8008820A90988884298
:100480002DDAFFE71BA8008820A90988884207DA2F
:10049000FFE71B9808A90988490019AA50521EE0D5
:1004A0001BA8018820AA13880590084619460492C3
:1004B000FFF766FE08AA1288520019AB99520599F7
:1004C0000A88049B198803901046FFF759FE059986
:1004D0000880FFE70898401C08A90880CBE707A818
:1004E00002210180FFE707A8008800282BD4FFE73E
:1004F00007A80088022102464A40400019A9085A6C
:100500000243002A01D1FFE718E007A80088400055
:1005100019A9085A80000BA9085819490A6802430A
:100520000A601A480291FFF717FF02980168164AFD
:10053000114301601648FFF70FFFFFE70798401EC1
:1005400007A90880CFE70E4801680522D2011143B0
:1005500001600C4901900846FFF7FEFE0198016812
:10056000094A1143016045E71410024000040048A5
:100570005555040028060008F0050008100400483E
:100580001804004820A107000000FFFF400D0300F1
:1005900050C3000080B584B00290019101980028FA
:1005A00003D1FFE7012003901EE00198012803D149
:1005B000FFE70298039017E001A80078C007002821
:1005C00008D1FFE70298404301994908FFF7E2FF8D
:1005D000039009E00298404301994908FFF7DAFFC8
:1005E000029941430391FFE7039804B080BD0000E6
:1005F0003F020000060200005B0200004F02000004
:10060000660200006D0200007D020000070200008B
:100610007F0200006F020000770200007C020000F1
:10062000390200005E02000000000100000000002E
:100630000100000000000000480600080000002043
:0806400060060000040100083F
:04000005080000C12E
:00000001FF
