:020000040800F2
:100000006006002049010008510100085301000862
:1000100000000000000000000000000000000000E0
:100020000000000000000000000000005501000872
:1000300000000000000000005701000859010008FE
:100040005B0100085B0100085B0100085B01000820
:100050005B0100085B0100085B0100085B01000810
:100060005B0100085B0100085B0100085B01000800
:100070005B0100085B0100085B0100085B010008F0
:100080005B0100085B0100085B0100085B010008E0
:100090005B0100085B0100085B0100085B010008D0
:1000A0005B0100085B0100085B0100085B010008C0
:1000B0005B0100085B0100085B0100085B010008B0
:1000C00000F002F800F030F80CA030C8083824180E
:1000D0002D18671EA246AB4654465D46AC4201D180
:1000E00000F022F87E460F3EB6460FCC0126334282
:1000F00000D0FB1A3343A246AB4618470804000061
:10010000180400000023002400250026103A01D323
:1001100078C1FBD8520700D330C100D50B607047BF
:100120001FB51FBD10B510BD00F02DF81146FFF72B
:10013000F7FF00F0B1F800F045F803B4FFF7F2FF65
:1001400003BC00F04BF80000074880470748004711
:10015000FEE7FEE7FEE7FEE7FEE7FEE704480549A7
:10016000054A064B7047000095020008C1000008D0
:100170006000002060060020600200206002002075
:10018000704770477047754600F024F8AE4605008A
:1001900069465346C008C000854618B020B5FFF731
:1001A000DDFF60BCB64600260027C0C5C0C5C0C57F
:1001B000C0C5C0C5C0C5C0C5C0C5403D490849008F
:1001C0008D46704710B50446C046C0462046FFF72E
:1001D000B4FF10BD004870470000002001491820FE
:1001E000ABBEFEE72600020070470000B0B5204914
:1001F00008680122930318430860B649086853044D
:10020000184308600920C10608680523DB04184369
:1002100008601849086811231B0118430860164933
:1002200008685302984308601449086803239D0432
:10023000A8430860124C20682843206008681B050A
:100240009843086008681305184308600D4908685A
:10025000904308600C4B452018600C2008600B4B45
:10026000002018600A4B1860086810430860B0BD91
:100270001810024024000048040000480C00004808
:1002800008000048003801400C38014004380140A3
:100290000838014070470000F0B597B00020039087
:1002A00016908C490868012202929204104308605B
:1002B00089490868894A10430860FFF797FF029B45
:1002C0000398874A11681B021943116085491591EB
:1002D000854914911390129084481190844810908D
:1002E000FFE7FFE7834800688006002801D4FFE7A6
:1002F000F8E7814800880EA908700FA9002008803F
:10030000FFE70FA80088072800DDDFE008AB0193B6
:100310006420187069255D706F219970D870652010
:1003200018712D2058710FAA108814A9085C9871B3
:100330002020D87173241C7274265E7261279F720C
:10034000DE7275261E735C739873DD731C745874AB
:10035000148812A8005D303098740A20D8740D20DB
:100360001875002058750EA800781288895C88429C
:1003700065D1FFE70FA8018812A8405C00282BD1A7
:10038000FFE70FA8038812A90122CA540288895CDA
:10039000303108AA9174018810A8425C504908685D
:1003A0001043086000200790FFE70798152812DC2B
:1003B000FFE7FFE74F4800680006002801D4FFE789
:1003C000F8E7079908A8405C4D490880FFE70798BF
:1003D000401C0790E9E731E00FA8018812A8405CB3
:1003E00001282AD1FFE70FA90B8812AA0020D054B8
:1003F0000B88D25C303208AB9A740A8810A98B5CE7
:100400003E4A1168194311600690FFE706981528C7
:1004100012DCFFE7FFE7374800680006002801D438
:10042000FFE7F8E7069908A8405C35490880FFE730
:100430000698401C0690E9E7FFE7FFE7FFE70EA8F4
:100440000078302805D0FFE70EA80078392837D18A
:10045000FFE70EA80078302818D1FFE700200590AC
:10046000FFE70598072810DCFFE7059910A8425C14
:100470002249086810430860059A12A90020885490
:10048000FFE70598401C0590EBE7FFE7002004908C
:10049000FFE70498152812DCFFE7FFE7154800681E
:1004A0000006002801D4FFE7F8E7049908A8405C9B
:1004B00013490880FFE70498401C0490E9E7FFE730
:1004C000FFE70F98401C0FA908801AE70FA900202A
:1004D000088006E71410024000040048555501004A
:1004E0001404004835363738313233344020100890
:1004F000010204801C3801402438014028040048CF
:1005000028380140140500080000002060060000A3
:0405100004010008DA
:04000005080000C12E
:00000001FF
