:020000040800F2
:1000000020080020650100086D0100086F0100084C
:1000100000000000000000000000000000000000E0
:100020000000000000000000000000007101000856
:1000300000000000000000007301000875010008C6
:1000400077010008770100087701000877010008B0
:1000500077010008770100087701000877010008A0
:100060007701000877010008770100087701000890
:100070007701000877010008770100087701000880
:100080007701000877010008770100087701000870
:100090007701000877010008770100087701000860
:1000A000770100087701000877010008C102000805
:1000B0007701000877010008770100087701000840
:1000C00000F002F800F03EF80CA030C80838241800
:1000D0002D18671EA246AB4654465D46AC4201D180
:1000E00000F030F87E460F3EB6460FCC0126334274
:1000F00000D0FB1A3343A246AB4618471406000053
:1001000034060000103A02D378C878C1FAD85207F2
:1001100001D330C830C101D504680C6070470000BD
:100120000023002400250026103A01D378C1FBD813
:10013000520700D330C100D50B6070471FB51FBDFB
:1001400010B510BD00F02DF81146FFF7F7FF00F0D5
:100150003BFA00F045F803B4FFF7F2FF03BC00F0F0
:100160004BF800000748804707480047FEE7FEE7D6
:10017000FEE7FEE7FEE7FEE704480549054A064BB1
:1001800070470000BD020008C100000820020020E6
:100190002008002020040020200400207047704721
:1001A0007047754600F024F8AE4605006946534690
:1001B000C008C000854618B020B5FFF7DDFF60BC61
:1001C000B64600260027C0C5C0C5C0C5C0C5C0C54D
:1001D000C0C5C0C5C0C5403D490849008D467047EF
:1001E00010B50446C046C0462046FFF7B4FF10BD18
:1001F00000487047A800002001491820ABBEFEE768
:100200002600020070470000B0B5224801680122B4
:1002100093031943016020480168530419430160A6
:100220000920C00601680523DB04194301601B484F
:10023000016811231B011943016019480168530229
:10024000994301601748016803239C04A14301609E
:1002500015490D6825430D6001681B059943016030
:10026000016813051943016010480168914301605A
:100270000F4945230B600C2101600168602319437D
:1002800001600C4900230B600B490B6001681143AE
:100290000160B0BD18100240141002402400004854
:1002A000040000480C0000480800004800380140E5
:1002B0000C38014004380140083801407047000004
:1002C00080B586B0B34800688006002800D410E1ED
:1002D0009648008805A9087008780D2800D0BFE06E
:1002E000AF480521018000200490FFE7049805280D
:1002F0000ADCFFE704984000EA4900220A52FFE7BF
:100300000498401C0490F1E7FFE7A448007840B24D
:10031000012821DBFFE7A248008840008449085AF1
:100320009E49097849B20622511A4900DD4A5052C5
:10033000FFE7984800680006002801D4FFE7F8E7C7
:1003400095487F21018096480188491E0180934885
:100350000178491E0170D8E700F0F4F8FFE78D48F6
:1003600000680006002801D4FFE7F8E78A480D215D
:10037000018000200390FFE70398252813DCFFE7A6
:10038000FFE7844800680006002801D4FFE7F8E78B
:10039000039840006A49085A7F490880FFE703989C
:1003A000401C0390E8E700200290FFE70298052830
:1003B00014DCFFE7FFE7774800680006002801D457
:1003C000FFE7F8E702984000B649085A3030724912
:1003D0000880FFE70298401C0290E7E7FFE76D48BE
:1003E00000680006002801D4FFE7F8E76A480A2100
:1003F0000180FFE7674800680006002801D4FFE796
:10040000F8E765480D21018000200190FFE7019881
:10041000252813DCFFE7FFE75E4800680006002898
:1004200001D4FFE7F8E7019840004449085A5A49C7
:100430000880FFE70198401C0190E8E70020009049
:10044000FFE7009805280ADCFFE7009840003849DC
:1004500000220A52FFE70098401C0090F1E747E0B5
:1004600005A800787F2817D1FFE74C48007840B2F4
:10047000012811DBFFE7FFE7464800680006002877
:1004800001D4FFE7F8E705A800784349088043480E
:100490000178491E01702AE005A80078302825DB84
:1004A000FFE705A80078392820DCFFE73B48007803
:1004B00040B205281ADCFFE7FFE73648006800066F
:1004C000002801D4FFE7F8E705A80178324A118037
:1004D0000078303831490A7852B205239A1A52000E
:1004E000134B98520878401C0870FFE7FFE7FFE7BE
:1004F000FFE7284800684006002815D5FFE70D48AB
:1005000040210160644800686249096888420AD253
:10051000FFE7614801684A1C0260C8B20649085CEE
:100520001D490880FFE7FFE706B080BD2438014081
:10053000140200202038014008010020580000204B
:1005400000000020FFE7134800680006002801D4DF
:10055000FFE7F8E710481B210180FFE70D4800681E
:100560000006002801D4FFE7F8E70B485B21018073
:10057000FFE7084800680006002801D4FFE7F8E715
:10058000054841210180054800210170044801808F
:100590007047C0461C38014028380140080200203E
:1005A000A200002082B0019000200090FFE7009898
:1005B0000199884205D2FFE7FFE70098401C0090B0
:1005C000F5E702B07047000010B58AB0002008902F
:1005D000EFF3108172B609912A490A6801239C043D
:1005E00022430A6028490A68284C22430A600A68A4
:1005F00003242406A2430A6025490A681C022243F8
:100600000A6024490860244908600493FFF7FCFD50
:1006100022480168049AD3061943016062B6FFE7D5
:1006200000200790052106910590FFE70698002815
:1006300017D4FFE7069840001A49085A05990A227C
:100640000390104600F030F80399484307990818C2
:100650000790FFE70698401E06900598401C0590FD
:10066000E4E70F4801210160079A029010460191CA
:10067000FFF798FF01980104029A11600798FFF7AD
:1006800091FFCDE714100240000400480100010072
:1006900014040048100200200C02002000E100E0D9
:1006A000180400484C00002080B584B002900191ED
:1006B0000198002803D1FFE70120039025E001986D
:1006C000012803D1FFE7029803901EE00198C10FB3
:1006D000411801229143401A00280AD1FFE70298ED
:1006E00040430199CA0F89184910FFF7DDFF0390B5
:1006F0000BE0029840430199CA0F89184910FFF78F
:10070000D3FF029941430391FFE7039804B080BDF2
:100710003007000800000020A800000004010008C5
:10072000D8070008A8000020780700002001000872
:10073000D000BF00D000B500D1008000D000B800CC
:10074000D000BE00D000B4002000D000BC00D0001B
:10075000B800D000B300D000B000D000BD00D00081
:10076000B800D1008F002C002000D000BC00D000C9
:10077000BA00D10081003A0020000000000005000E
:100780000000000000000000D000BD00D000BE004E
:10079000D000B200D000BE00D000B5002000D000D4
:1007A000B700D000BD00D000B000D1008700D0005D
:1007B000B500D000BD00D000B800D000B5002C00BE
:1007C0002000D000BC00D000BA00D10081003A0067
:0807D0002000050000000000FC
:04000005080000C12E
:00000001FF
