:020000040800F2
:100000006006002049010008510100085301000862
:1000100000000000000000000000000000000000E0
:100020000000000000000000000000005501000872
:1000300000000000000000005701000859010008FE
:100040005B0100085B0100085B0100085B01000820
:100050005B0100085B0100085B0100085B01000810
:100060005B0100085B0100085B0100085B01000800
:100070005B0100085B0100085B0100085B010008F0
:100080005B0100085B0100085B0100085B010008E0
:100090005B0100085B0100085B0100085B010008D0
:1000A0005B0100085B0100085B0100085B010008C0
:1000B0005B0100085B0100085B0100085B010008B0
:1000C00000F002F800F030F80CA030C8083824180E
:1000D0002D18671EA246AB4654465D46AC4201D180
:1000E00000F022F87E460F3EB6460FCC0126334282
:1000F00000D0FB1A3343A246AB4618473404000035
:10010000440400000023002400250026103A01D3F7
:1001100078C1FBD8520700D330C100D50B607047BF
:100120001FB51FBD10B510BD00F02DF81146FFF72B
:10013000F7FF00F09FF800F045F803B4FFF7F2FF77
:1001400003BC00F04BF80000074880470748004711
:10015000FEE7FEE7FEE7FEE7FEE7FEE704480549A7
:10016000054A064B7047000071020008C1000008F4
:100170006000002060060020600200206002002075
:10018000704770477047754600F024F8AE4605008A
:1001900069465346C008C000854618B020B5FFF731
:1001A000DDFF60BCB64600260027C0C5C0C5C0C57F
:1001B000C0C5C0C5C0C5C0C5C0C5403D490849008F
:1001C0008D46704710B50446C046C0462046FFF72E
:1001D000B4FF10BD004870470000002001491820FE
:1001E000ABBEFEE72600020070470000B0B501205C
:1001F0008103564A53680B435360410413680B4311
:1002000013600521CA0418490B460C3B1C681443B3
:100210001C60112212018B6913438B6142020B4651
:10022000083B1C6894431C60032293040C689C43A5
:100230000C600C1F25681D43256012050B68934355
:100240000B6002050B6813430B6008490A68824380
:100250000A604522CA600C220A6000224A608A6055
:100260000A6802430A60B0BD0C0000480038014033
:100270007047000086B0FFF7B9FF012398043349A7
:100280000A6802430A60324C204618380168314A35
:100290000A4302600027059704970397029701938A
:1002A0001802216801432160414E07E0019919803D
:1002B000274C23681343236000F052F8306880060F
:1002C000FCD53089C0B20921234A03E0491E2432FB
:1002D000002904D013688342F8D15768F6E739281B
:1002E0000BD100251C4C02A8415B207800F038F8A7
:1002F000AD1C2434102DF6D1E0E7082F19D10020D1
:100300000590049003900290114A144B1958090467
:100310001160001D2028F9D100250F4C02A8415B77
:10032000207800F01DF8AD1C2434102DF6D10827DC
:10033000C4E7B900094A5258790002AC6318615AFF
:100340000029B3D0002119801204B1E71410024033
:100350001804004855550100CC030008100500089A
:10036000B0B50023124A13A415682D06FCD5E55C30
:1003700095815B1C052BF7D113681B06FCD590817A
:100380000020012909D10FA113681B06FCD50B5CC5
:100390009381401C0528F7D108E008A113681B06CB
:1003A000FCD50B5C9381401C0628F7D1B0BDC0463C
:1003B0001C38014044696F6420000000206F6666AD
:1003C0000D0A0000206F6E0D0A00000031000000D1
:1003D000000000000000000000000000000000001D
:1003E000000000000000000000000000000000000D
:1003F00032000000010000000000000000000000CA
:1004000000000000000000000000000000000000EC
:1004100000000000330000000200000000000000A7
:1004200000000000000000000000000000000000CC
:100430000000000000000000340000000300000085
:1004400000000000000000000000000000000000AC
:100450000000000000000000000000003500000067
:100460000400000000000000000000000000000088
:10047000000000000000000000000000000000007C
:100480003600000005000000000000000000000031
:10049000000000000000000000000000000000005C
:1004A000000000003700000006000000000000000F
:1004B000000000000000000000000000000000003C
:1004C00000000000000000003800000007000000ED
:1004D000000000000000000000000000000000001C
:1004E00000000000000000000000000030000000DC
:1004F00008000000000000000000000000000000F4
:1005000000000000000000000000000000000000EB
:100510000100000002000000040000008000000054
:100520004000000020000000100000000800000053
:1005300040050008000000206006000004010008DB
:0400000508000149A5
:00000001FF
