:020000040800F2
:100000006006002049010008510100085301000862
:1000100000000000000000000000000000000000E0
:100020000000000000000000000000005501000872
:1000300000000000000000005701000859010008FE
:100040005B0100085B0100085B0100085B01000820
:100050005B0100085B0100085B0100085B01000810
:100060005B0100085B0100085B0100085B01000800
:100070005B0100085B0100085B0100085B010008F0
:100080005B0100085B0100085B0100085B010008E0
:100090005B0100085B0100085B0100085B010008D0
:1000A0005B0100085B0100085B0100085B010008C0
:1000B0005B0100085B0100085B0100085B010008B0
:1000C00000F002F800F030F80CA030C8083824180E
:1000D0002D18671EA246AB4654465D46AC4201D180
:1000E00000F022F87E460F3EB6460FCC0126334282
:1000F00000D0FB1A3343A246AB46184778030000F2
:10010000880300000023002400250026103A01D3B4
:1001100078C1FBD8520700D330C100D50B607047BF
:100120001FB51FBD10B510BD00F02DF81146FFF72B
:10013000F7FF00F06DF800F045F803B4FFF7F2FFA9
:1001400003BC00F04BF80000074880470748004711
:10015000FEE7FEE7FEE7FEE7FEE7FEE704480549A7
:10016000054A064B70470000EB010008C10000087B
:100170006000002060060020600200206002002075
:10018000704770477047754600F024F8AE4605008A
:1001900069465346C008C000854618B020B5FFF731
:1001A000DDFF60BCB64600260027C0C5C0C5C0C57F
:1001B000C0C5C0C5C0C5C0C5C0C5403D490849008F
:1001C0008D46704710B50446C046C0462046FFF72E
:1001D000B4FF10BD004870470000002001491820FE
:1001E000ABBEFEE7260002007047704782B0019068
:1001F00000200090FFE700980199884205D2FFE7B0
:10020000FFE70098401C0090F5E702B0704700003F
:10021000B0B5A0B000201F907B4801680122930474
:100220001943016079480168794B194301607949A4
:100230000B68794C23430B600168FF231B0699432D
:1002400001607648016812021143016074481E90F3
:10025000744813A93CC83CC13CC83CC172480BA9B6
:100260003CC83CC13CC83CC1FFE770480168032260
:1002700012031140090B1D91016889B2C90B1C9131
:100280000168012292031140890B1B91006880B222
:10029000800B0A900A980328039000D9B2E00398D3
:1002A00078440079400087440134578A01200002D5
:1002B0005F49086000200990FFE70998072810D8D7
:1002C000FFE70998800013A90858594908601E984B
:1002D0001D998840FFF78AFFFFE70998401C0990A5
:1002E000EBE700200890FFE70898072810D8FFE701
:1002F000089880000BA908584D4908601E981D9960
:100300008840FFF773FFFFE70898401C0890EBE771
:10031000ABE7012000024649086000200790FFE794
:100320000798072817D8FFE70798800013A90858EF
:100330003F4908601E981D9A90400291FFF756FFB2
:10034000079880000BA9085802990860FFE70798F2
:10035000401C0790E4E788E7012000023449086068
:1003600007200690FFE70698002810D4FFE70698BC
:10037000800013A908582E4908601E981D998840CE
:10038000FFF734FFFFE70698401E0690EBE70720D3
:100390000590FFE70598002810D4FFE70598800036
:1003A0000BA90858224908601E981D998840FFF73C
:1003B0001DFFFFE70598401E0590EBE755E701207C
:1003C00000021B49086007200490FFE704980028FA
:1003D00017D4FFE70498800013A90858144908604F
:1003E0001E981D9A90400191FFF700FF049880002D
:1003F0000BA9085801990860FFE70498401E049073
:10040000E4E732E731E7C046141002400004004838
:1004100055550100080400485555000014040048D3
:1004200050C30000340400085404000810040048BD
:100430001804004801000000020000000400000051
:1004400080000000400000002000000010000000BC
:10045000080000000000010000000200000004008D
:10046000000080000000400000002000000010009C
:10047000000008008404000800000020600600005E
:04048000040100086B
:04000005080000C12E
:00000001FF
